{
  "_format": "hh-sol-artifact-1",
  "contractName": "CompaignFactory",
  "sourceName": "contracts/Compaign.sol",
  "abi": [
    {
      "anonymous": false,
      "inputs": [
        {
          "indexed": false,
          "internalType": "string",
          "name": "title",
          "type": "string"
        },
        {
          "indexed": false,
          "internalType": "uint256",
          "name": "requiredAmount",
          "type": "uint256"
        },
        {
          "indexed": true,
          "internalType": "address",
          "name": "owner",
          "type": "address"
        },
        {
          "indexed": false,
          "internalType": "address",
          "name": "compaignAddress",
          "type": "address"
        },
        {
          "indexed": false,
          "internalType": "string",
          "name": "imageURI",
          "type": "string"
        },
        {
          "indexed": true,
          "internalType": "uint256",
          "name": "timestamp",
          "type": "uint256"
        },
        {
          "indexed": true,
          "internalType": "string",
          "name": "category",
          "type": "string"
        }
      ],
      "name": "compaignCreated",
      "type": "event"
    },
    {
      "inputs": [
        {
          "internalType": "string",
          "name": "compaignTitle",
          "type": "string"
        },
        {
          "internalType": "uint256",
          "name": "requiredCompaignAmount",
          "type": "uint256"
        },
        {
          "internalType": "string",
          "name": "imgURI",
          "type": "string"
        },
        {
          "internalType": "string",
          "name": "category",
          "type": "string"
        },
        {
          "internalType": "string",
          "name": "storyURI",
          "type": "string"
        }
      ],
      "name": "createCompaign",
      "outputs": [],
      "stateMutability": "nonpayable",
      "type": "function"
    },
    {
      "inputs": [
        {
          "internalType": "uint256",
          "name": "",
          "type": "uint256"
        }
      ],
      "name": "deployedCompaigns",
      "outputs": [
        {
          "internalType": "address",
          "name": "",
          "type": "address"
        }
      ],
      "stateMutability": "view",
      "type": "function"
    }
  ],
  "bytecode": "0x608060405234801561001057600080fd5b506113a8806100206000396000f3fe60806040523480156200001157600080fd5b50600436106200003a5760003560e01c80632f3068c5146200003f578063e698bdf1146200005f575b600080fd5b6200005d6004803603810190620000579190620003b3565b62000095565b005b6200007d6004803603810190620000779190620004b7565b620001b4565b6040516200008c91906200052e565b60405180910390f35b60008585858433604051620000aa90620001f4565b620000ba959493929190620005ef565b604051809103906000f080158015620000d7573d6000803e3d6000fd5b5090506000819080600181540180825580915050600190039060005260206000200160009091909190916101000a81548173ffffffffffffffffffffffffffffffffffffffff021916908373ffffffffffffffffffffffffffffffffffffffff160217905550826040516200014d9190620006a3565b6040518091039020423373ffffffffffffffffffffffffffffffffffffffff167f1ca3da2a147b09a230ca622582dad64efe01adbd75d840e91a167cec33046ebc8989868a604051620001a49493929190620006bc565b60405180910390a4505050505050565b60008181548110620001c557600080fd5b906000526020600020016000915054906101000a900473ffffffffffffffffffffffffffffffffffffffff1681565b610c5b806200071883390190565b6000604051905090565b600080fd5b600080fd5b600080fd5b600080fd5b6000601f19601f8301169050919050565b7f4e487b7100000000000000000000000000000000000000000000000000000000600052604160045260246000fd5b6200026b8262000220565b810181811067ffffffffffffffff821117156200028d576200028c62000231565b5b80604052505050565b6000620002a262000202565b9050620002b0828262000260565b919050565b600067ffffffffffffffff821115620002d357620002d262000231565b5b620002de8262000220565b9050602081019050919050565b82818337600083830152505050565b6000620003116200030b84620002b5565b62000296565b90508281526020810184848401111562000330576200032f6200021b565b5b6200033d848285620002eb565b509392505050565b600082601f8301126200035d576200035c62000216565b5b81356200036f848260208601620002fa565b91505092915050565b6000819050919050565b6200038d8162000378565b81146200039957600080fd5b50565b600081359050620003ad8162000382565b92915050565b600080600080600060a08688031215620003d257620003d16200020c565b5b600086013567ffffffffffffffff811115620003f357620003f262000211565b5b620004018882890162000345565b955050602062000414888289016200039c565b945050604086013567ffffffffffffffff81111562000438576200043762000211565b5b620004468882890162000345565b935050606086013567ffffffffffffffff8111156200046a576200046962000211565b5b620004788882890162000345565b925050608086013567ffffffffffffffff8111156200049c576200049b62000211565b5b620004aa8882890162000345565b9150509295509295909350565b600060208284031215620004d057620004cf6200020c565b5b6000620004e0848285016200039c565b91505092915050565b600073ffffffffffffffffffffffffffffffffffffffff82169050919050565b60006200051682620004e9565b9050919050565b620005288162000509565b82525050565b60006020820190506200054560008301846200051d565b92915050565b600081519050919050565b600082825260208201905092915050565b60005b83811015620005875780820151818401526020810190506200056a565b8381111562000597576000848401525b50505050565b6000620005aa826200054b565b620005b6818562000556565b9350620005c881856020860162000567565b620005d38162000220565b840191505092915050565b620005e98162000378565b82525050565b600060a08201905081810360008301526200060b81886200059d565b90506200061c6020830187620005de565b81810360408301526200063081866200059d565b905081810360608301526200064681856200059d565b90506200065760808301846200051d565b9695505050505050565b600081905092915050565b600062000679826200054b565b62000685818562000661565b93506200069781856020860162000567565b80840191505092915050565b6000620006b182846200066c565b915081905092915050565b60006080820190508181036000830152620006d881876200059d565b9050620006e96020830186620005de565b620006f860408301856200051d565b81810360608301526200070c81846200059d565b90509594505050505056fe60806040523480156200001157600080fd5b5060405162000c5b38038062000c5b8339818101604052810190620000379190620003c2565b84600090805190602001906200004f929190620000d5565b508360018190555082600290805190602001906200006f929190620000d5565b50816003908051906020019062000088929190620000d5565b5080600460006101000a81548173ffffffffffffffffffffffffffffffffffffffff021916908373ffffffffffffffffffffffffffffffffffffffff16021790555050505050506200050c565b828054620000e390620004d6565b90600052602060002090601f01602090048101928262000107576000855562000153565b82601f106200012257805160ff191683800117855562000153565b8280016001018555821562000153579182015b828111156200015257825182559160200191906001019062000135565b5b50905062000162919062000166565b5090565b5b808211156200018157600081600090555060010162000167565b5090565b6000604051905090565b600080fd5b600080fd5b600080fd5b600080fd5b6000601f19601f8301169050919050565b7f4e487b7100000000000000000000000000000000000000000000000000000000600052604160045260246000fd5b620001ee82620001a3565b810181811067ffffffffffffffff8211171562000210576200020f620001b4565b5b80604052505050565b60006200022562000185565b9050620002338282620001e3565b919050565b600067ffffffffffffffff821115620002565762000255620001b4565b5b6200026182620001a3565b9050602081019050919050565b60005b838110156200028e57808201518184015260208101905062000271565b838111156200029e576000848401525b50505050565b6000620002bb620002b58462000238565b62000219565b905082815260208101848484011115620002da57620002d96200019e565b5b620002e78482856200026e565b509392505050565b600082601f83011262000307576200030662000199565b5b815162000319848260208601620002a4565b91505092915050565b6000819050919050565b620003378162000322565b81146200034357600080fd5b50565b60008151905062000357816200032c565b92915050565b600073ffffffffffffffffffffffffffffffffffffffff82169050919050565b60006200038a826200035d565b9050919050565b6200039c816200037d565b8114620003a857600080fd5b50565b600081519050620003bc8162000391565b92915050565b600080600080600060a08688031215620003e157620003e06200018f565b5b600086015167ffffffffffffffff81111562000402576200040162000194565b5b6200041088828901620002ef565b9550506020620004238882890162000346565b945050604086015167ffffffffffffffff81111562000447576200044662000194565b5b6200045588828901620002ef565b935050606086015167ffffffffffffffff81111562000479576200047862000194565b5b6200048788828901620002ef565b92505060806200049a88828901620003ab565b9150509295509295909350565b7f4e487b7100000000000000000000000000000000000000000000000000000000600052602260045260246000fd5b60006002820490506001821680620004ef57607f821691505b60208210811415620005065762000505620004a7565b5b50919050565b61073f806200051c6000396000f3fe6080604052600436106100705760003560e01c80634d012f581161004e5780634d012f58146100f65780638da5cb5b14610121578063ed88c68e1461014c578063f3ccaac01461015657610070565b806346c922d11461007557806348b9ef40146100a05780634a79d50c146100cb575b600080fd5b34801561008157600080fd5b5061008a610181565b6040516100979190610505565b60405180910390f35b3480156100ac57600080fd5b506100b561020f565b6040516100c29190610540565b60405180910390f35b3480156100d757600080fd5b506100e0610215565b6040516100ed9190610505565b60405180910390f35b34801561010257600080fd5b5061010b6102a3565b6040516101189190610540565b60405180910390f35b34801561012d57600080fd5b506101366102a9565b604051610143919061059c565b60405180910390f35b6101546102cf565b005b34801561016257600080fd5b5061016b6103de565b6040516101789190610505565b60405180910390f35b6003805461018e906105e6565b80601f01602080910402602001604051908101604052809291908181526020018280546101ba906105e6565b80156102075780601f106101dc57610100808354040283529160200191610207565b820191906000526020600020905b8154815290600101906020018083116101ea57829003601f168201915b505050505081565b60015481565b60008054610222906105e6565b80601f016020809104026020016040519081016040528092919081815260200182805461024e906105e6565b801561029b5780601f106102705761010080835404028352916020019161029b565b820191906000526020600020905b81548152906001019060200180831161027e57829003601f168201915b505050505081565b60055481565b600460009054906101000a900473ffffffffffffffffffffffffffffffffffffffff1681565b60055460015411610315576040517f08c379a000000000000000000000000000000000000000000000000000000000815260040161030c90610664565b60405180910390fd5b600460009054906101000a900473ffffffffffffffffffffffffffffffffffffffff1673ffffffffffffffffffffffffffffffffffffffff166108fc349081150290604051600060405180830381858888f1935050505015801561037d573d6000803e3d6000fd5b50346005600082825461039091906106b3565b9250508190555042343373ffffffffffffffffffffffffffffffffffffffff167fe6add99d06d9ad7fc456e746aa162eed6211c5002ef2dacdd67b8d2016822fba60405160405180910390a4565b600280546103eb906105e6565b80601f0160208091040260200160405190810160405280929190818152602001828054610417906105e6565b80156104645780601f1061043957610100808354040283529160200191610464565b820191906000526020600020905b81548152906001019060200180831161044757829003601f168201915b505050505081565b600081519050919050565b600082825260208201905092915050565b60005b838110156104a657808201518184015260208101905061048b565b838111156104b5576000848401525b50505050565b6000601f19601f8301169050919050565b60006104d78261046c565b6104e18185610477565b93506104f1818560208601610488565b6104fa816104bb565b840191505092915050565b6000602082019050818103600083015261051f81846104cc565b905092915050565b6000819050919050565b61053a81610527565b82525050565b60006020820190506105556000830184610531565b92915050565b600073ffffffffffffffffffffffffffffffffffffffff82169050919050565b60006105868261055b565b9050919050565b6105968161057b565b82525050565b60006020820190506105b1600083018461058d565b92915050565b7f4e487b7100000000000000000000000000000000000000000000000000000000600052602260045260246000fd5b600060028204905060018216806105fe57607f821691505b60208210811415610612576106116105b7565b5b50919050565b7f726571756972656420416d6f756e742046756c6c46696c6c6564202e2e2e0000600082015250565b600061064e601e83610477565b915061065982610618565b602082019050919050565b6000602082019050818103600083015261067d81610641565b9050919050565b7f4e487b7100000000000000000000000000000000000000000000000000000000600052601160045260246000fd5b60006106be82610527565b91506106c983610527565b9250827fffffffffffffffffffffffffffffffffffffffffffffffffffffffffffffffff038211156106fe576106fd610684565b5b82820190509291505056fea264697066735822122041e61be2c2d6321c98e36433d2818b0f54084241be595330335a467aeb1a0c2664736f6c634300080a0033a26469706673582212205c3b50f69c30e0886d818d1b6df0791b265e927f573352aee699cf1d8fca86cb64736f6c634300080a0033",
  "linkReferences": {},
  "deployedLinkReferences": {}
}